{
  "contractName": "Test",
  "abi": [
    {
      "anonymous": false,
      "inputs": [
        {
          "indexed": true,
          "internalType": "string",
          "name": "name",
          "type": "string"
        }
      ],
      "name": "HelloTo",
      "type": "event"
    },
    {
      "inputs": [],
      "name": "sayHello",
      "outputs": [
        {
          "internalType": "string",
          "name": "",
          "type": "string"
        }
      ],
      "stateMutability": "pure",
      "type": "function",
      "constant": true
    },
    {
      "inputs": [
        {
          "internalType": "string",
          "name": "name",
          "type": "string"
        }
      ],
      "name": "sayHelloTo",
      "outputs": [
        {
          "internalType": "string",
          "name": "",
          "type": "string"
        }
      ],
      "stateMutability": "nonpayable",
      "type": "function"
    }
  ],
  "bytecode": "0x608060405234801561001057600080fd5b5061049c806100206000396000f3fe608060405234801561001057600080fd5b5060043610610053576000357c0100000000000000000000000000000000000000000000000000000000900480636c0ff76814610058578063ef5fb05b14610088575b600080fd5b610072600480360381019061006d91906102a8565b6100a6565b60405161007f9190610370565b60405180910390f35b610090610111565b60405161009d9190610370565b60405180910390f35b6060816040516100b691906103ce565b60405180910390207f40eb26eb238c440603813cf67727ac202bdb298d2735912dce34ab0a43fd5db460405160405180910390a2816040516020016100fb9190610431565b6040516020818303038152906040529050919050565b60606040518060400160405280601081526020017f48656c6c6f2c20457468657265756d2100000000000000000000000000000000815250905090565b6000604051905090565b600080fd5b600080fd5b600080fd5b600080fd5b6000601f19601f8301169050919050565b7f4e487b7100000000000000000000000000000000000000000000000000000000600052604160045260246000fd5b6101b58261016c565b810181811067ffffffffffffffff821117156101d4576101d361017d565b5b80604052505050565b60006101e761014e565b90506101f382826101ac565b919050565b600067ffffffffffffffff8211156102135761021261017d565b5b61021c8261016c565b9050602081019050919050565b82818337600083830152505050565b600061024b610246846101f8565b6101dd565b90508281526020810184848401111561026757610266610167565b5b610272848285610229565b509392505050565b600082601f83011261028f5761028e610162565b5b813561029f848260208601610238565b91505092915050565b6000602082840312156102be576102bd610158565b5b600082013567ffffffffffffffff8111156102dc576102db61015d565b5b6102e88482850161027a565b91505092915050565b600081519050919050565b600082825260208201905092915050565b60005b8381101561032b578082015181840152602081019050610310565b60008484015250505050565b6000610342826102f1565b61034c81856102fc565b935061035c81856020860161030d565b6103658161016c565b840191505092915050565b6000602082019050818103600083015261038a8184610337565b905092915050565b600081905092915050565b60006103a8826102f1565b6103b28185610392565b93506103c281856020860161030d565b80840191505092915050565b60006103da828461039d565b915081905092915050565b7f48656c6c6f2c2000000000000000000000000000000000000000000000000000815250565b7f2100000000000000000000000000000000000000000000000000000000000000815250565b600061043c826103e5565b60078201915061044c828461039d565b91506104578261040b565b6001820191508190509291505056fea26469706673582212203c3f9bc42ec6ffbf26efef73a4e50d54079bd6ab08fafa2c0ff86c0f78237ff964736f6c63430008150033",
  "immutableReferences": {},
  "source": "// SPDX-License-Identifier: MIT\npragma solidity >=0.4.22 <0.9.0;\n\ncontract Test {\n    event HelloTo(string indexed name);\n    function sayHello() public pure returns (string memory) {\n        return \"Hello, Ethereum!\";\n    }\n\n    // sayHelloToHelloTo\n    function sayHelloTo(string memory name) public returns (string memory) {\n        emit HelloTo(name);\n        return string.concat(\"Hello, \", name, \"!\");\n    }\n}\n",
  "sourcePath": "/Users/tangshuokun//4-1-etherjs2/contracts/Test.sol",
  "compiler": {
    "name": "solc",
    "version": "0.8.21+commit.d9974bed.Emscripten.clang"
  },
  "schemaVersion": "3.4.16",
  "updatedAt": "2025-08-24T14:00:19.377Z",
  "networkType": "ethereum",
  "devdoc": {
    "kind": "dev",
    "methods": {},
    "version": 1
  },
  "userdoc": {
    "kind": "user",
    "methods": {},
    "version": 1
  }
}